{
  "contractName": "ERC721Enumerable",
  "abi": [
    {
      "inputs": [],
      "stateMutability": "nonpayable",
      "type": "constructor"
    },
    {
      "anonymous": false,
      "inputs": [
        {
          "indexed": true,
          "internalType": "address",
          "name": "_owner",
          "type": "address"
        },
        {
          "indexed": true,
          "internalType": "address",
          "name": "_approved",
          "type": "address"
        },
        {
          "indexed": true,
          "internalType": "uint256",
          "name": "_tokenId",
          "type": "uint256"
        }
      ],
      "name": "Approval",
      "type": "event"
    },
    {
      "anonymous": false,
      "inputs": [
        {
          "indexed": true,
          "internalType": "address",
          "name": "_from",
          "type": "address"
        },
        {
          "indexed": true,
          "internalType": "address",
          "name": "_to",
          "type": "address"
        },
        {
          "indexed": true,
          "internalType": "uint256",
          "name": "_tokenId",
          "type": "uint256"
        }
      ],
      "name": "Transfer",
      "type": "event"
    },
    {
      "inputs": [
        {
          "internalType": "address",
          "name": "_owner",
          "type": "address"
        }
      ],
      "name": "balanceOf",
      "outputs": [
        {
          "internalType": "uint256",
          "name": "",
          "type": "uint256"
        }
      ],
      "stateMutability": "view",
      "type": "function"
    },
    {
      "inputs": [
        {
          "internalType": "uint256",
          "name": "_tokenId",
          "type": "uint256"
        }
      ],
      "name": "ownerOf",
      "outputs": [
        {
          "internalType": "address",
          "name": "",
          "type": "address"
        }
      ],
      "stateMutability": "view",
      "type": "function"
    },
    {
      "inputs": [
        {
          "internalType": "bytes4",
          "name": "interfaceID",
          "type": "bytes4"
        }
      ],
      "name": "supportsInterface",
      "outputs": [
        {
          "internalType": "bool",
          "name": "",
          "type": "bool"
        }
      ],
      "stateMutability": "view",
      "type": "function"
    },
    {
      "inputs": [
        {
          "internalType": "address",
          "name": "_from",
          "type": "address"
        },
        {
          "internalType": "address",
          "name": "_to",
          "type": "address"
        },
        {
          "internalType": "uint256",
          "name": "_tokenId",
          "type": "uint256"
        }
      ],
      "name": "transferFrom",
      "outputs": [],
      "stateMutability": "nonpayable",
      "type": "function"
    },
    {
      "inputs": [
        {
          "internalType": "uint256",
          "name": "index",
          "type": "uint256"
        }
      ],
      "name": "tokenByIndex",
      "outputs": [
        {
          "internalType": "uint256",
          "name": "",
          "type": "uint256"
        }
      ],
      "stateMutability": "view",
      "type": "function"
    },
    {
      "inputs": [
        {
          "internalType": "address",
          "name": "owner",
          "type": "address"
        },
        {
          "internalType": "uint256",
          "name": "index",
          "type": "uint256"
        }
      ],
      "name": "tokenOfOwnerByIndex",
      "outputs": [
        {
          "internalType": "uint256",
          "name": "",
          "type": "uint256"
        }
      ],
      "stateMutability": "view",
      "type": "function"
    },
    {
      "inputs": [],
      "name": "totalSupply",
      "outputs": [
        {
          "internalType": "uint256",
          "name": "",
          "type": "uint256"
        }
      ],
      "stateMutability": "view",
      "type": "function"
    }
  ],
  "bytecode": "0x608060405234801561001057600080fd5b506100407f01ffc9a7a5cef8baa21ed3c5c0d7e23accb804b619e9333b597f47a0d84076e261012b60201b60201c565b6100b37f22c82707ba960a14c7592ffb6b8cfaa073fed0048a84cc7fa41f6b5bd8e7f2e47f3a6eb71757dfc6e784c1459d26270140c2c147d95ca985c80026fc5301c3eca17f8a7e378434598edc36d108689a030cbc9d7d465de4f74c71bae1028eed6a881b181861012b60201b60201c565b6101267f8230223f691b981717299fae9549350a0d894555723531f02108b1f522c1a7977f6da5e1284143cdd2d15038a59bde3be031250f00291d64494c12d967b3a4e0c37fc53637662700e6c65104059db8bba34439e0c32483ab7c34e3ccae52c7395495181861012b60201b60201c565b61027c565b63ffffffff60e01b817bffffffffffffffffffffffffffffffffffffffffffffffffffffffff191603610193576040517f08c379a000000000000000000000000000000000000000000000000000000000815260040161018a9061025c565b60405180910390fd5b6001600080837bffffffffffffffffffffffffffffffffffffffffffffffffffffffff19167bffffffffffffffffffffffffffffffffffffffffffffffffffffffff1916815260200190815260200160002060006101000a81548160ff02191690831515021790555050565b600082825260208201905092915050565b7f496e76616c696420496e74657266616365205265717565737400000000000000600082015250565b60006102466019836101ff565b915061025182610210565b602082019050919050565b6000602082019050818103600083015261027581610239565b9050919050565b610d2e8061028b6000396000f3fe608060405234801561001057600080fd5b506004361061007d5760003560e01c80632f745c591161005b5780632f745c59146100ec5780634f6ccce71461011c5780636352211e1461014c57806370a082311461017c5761007d565b806301ffc9a71461008257806318160ddd146100b257806323b872dd146100d0575b600080fd5b61009c6004803603810190610097919061075b565b6101ac565b6040516100a991906107a3565b60405180910390f35b6100ba610213565b6040516100c791906107d7565b60405180910390f35b6100ea60048036038101906100e5919061087c565b610220565b005b610106600480360381019061010191906108cf565b610230565b60405161011391906107d7565b60405180910390f35b6101366004803603810190610131919061090f565b6102e0565b60405161014391906107d7565b60405180910390f35b6101666004803603810190610161919061090f565b610351565b604051610173919061094b565b60405180910390f35b61019660048036038101906101919190610966565b610402565b6040516101a391906107d7565b60405180910390f35b6000806000837bffffffffffffffffffffffffffffffffffffffffffffffffffffffff19167bffffffffffffffffffffffffffffffffffffffffffffffffffffffff1916815260200190815260200160002060009054906101000a900460ff169050919050565b6000600480549050905090565b61022b8383836104b9565b505050565b600061023b83610402565b821061027c576040517f08c379a0000000000000000000000000000000000000000000000000000000008152600401610273906109f0565b60405180910390fd5b600660008473ffffffffffffffffffffffffffffffffffffffff1673ffffffffffffffffffffffffffffffffffffffff16815260200190815260200160002082815481106102cd576102cc610a10565b5b9060005260206000200154905092915050565b60006102ea610213565b821061032b576040517f08c379a000000000000000000000000000000000000000000000000000000000815260040161032290610a8b565b60405180910390fd5b6004828154811061033f5761033e610a10565b5b90600052602060002001549050919050565b6000806001600084815260200190815260200160002060009054906101000a900473ffffffffffffffffffffffffffffffffffffffff169050600073ffffffffffffffffffffffffffffffffffffffff168173ffffffffffffffffffffffffffffffffffffffff16036103f9576040517f08c379a00000000000000000000000000000000000000000000000000000000081526004016103f090610b1d565b60405180910390fd5b80915050919050565b60008073ffffffffffffffffffffffffffffffffffffffff168273ffffffffffffffffffffffffffffffffffffffff1603610472576040517f08c379a000000000000000000000000000000000000000000000000000000000815260040161046990610b1d565b60405180910390fd5b600260008373ffffffffffffffffffffffffffffffffffffffff1673ffffffffffffffffffffffffffffffffffffffff168152602001908152602001600020549050919050565b600073ffffffffffffffffffffffffffffffffffffffff168273ffffffffffffffffffffffffffffffffffffffff1603610528576040517f08c379a000000000000000000000000000000000000000000000000000000000815260040161051f90610baf565b60405180910390fd5b8273ffffffffffffffffffffffffffffffffffffffff1661054882610351565b73ffffffffffffffffffffffffffffffffffffffff161461059e576040517f08c379a000000000000000000000000000000000000000000000000000000000815260040161059590610c41565b60405180910390fd5b6001600260008573ffffffffffffffffffffffffffffffffffffffff1673ffffffffffffffffffffffffffffffffffffffff16815260200190815260200160002060008282546105ee9190610c90565b925050819055506001600260008473ffffffffffffffffffffffffffffffffffffffff1673ffffffffffffffffffffffffffffffffffffffff16815260200190815260200160002060008282546106459190610cc4565b92505081905550816001600083815260200190815260200160002060006101000a81548173ffffffffffffffffffffffffffffffffffffffff021916908373ffffffffffffffffffffffffffffffffffffffff160217905550808273ffffffffffffffffffffffffffffffffffffffff168473ffffffffffffffffffffffffffffffffffffffff167fddf252ad1be2c89b69c2b068fc378daa952ba7f163c4a11628f55a4df523b3ef60405160405180910390a4505050565b600080fd5b60007fffffffff0000000000000000000000000000000000000000000000000000000082169050919050565b61073881610703565b811461074357600080fd5b50565b6000813590506107558161072f565b92915050565b600060208284031215610771576107706106fe565b5b600061077f84828501610746565b91505092915050565b60008115159050919050565b61079d81610788565b82525050565b60006020820190506107b86000830184610794565b92915050565b6000819050919050565b6107d1816107be565b82525050565b60006020820190506107ec60008301846107c8565b92915050565b600073ffffffffffffffffffffffffffffffffffffffff82169050919050565b600061081d826107f2565b9050919050565b61082d81610812565b811461083857600080fd5b50565b60008135905061084a81610824565b92915050565b610859816107be565b811461086457600080fd5b50565b60008135905061087681610850565b92915050565b600080600060608486031215610895576108946106fe565b5b60006108a38682870161083b565b93505060206108b48682870161083b565b92505060406108c586828701610867565b9150509250925092565b600080604083850312156108e6576108e56106fe565b5b60006108f48582860161083b565b925050602061090585828601610867565b9150509250929050565b600060208284031215610925576109246106fe565b5b600061093384828501610867565b91505092915050565b61094581610812565b82525050565b6000602082019050610960600083018461093c565b92915050565b60006020828403121561097c5761097b6106fe565b5b600061098a8482850161083b565b91505092915050565b600082825260208201905092915050565b7f6f776e657220696e646578206973206f7574206f6620626f756e647321000000600082015250565b60006109da601d83610993565b91506109e5826109a4565b602082019050919050565b60006020820190508181036000830152610a09816109cd565b9050919050565b7f4e487b7100000000000000000000000000000000000000000000000000000000600052603260045260246000fd5b7f676c6f62616c20696e646578206973206f7574206f6620626f756e6473210000600082015250565b6000610a75601e83610993565b9150610a8082610a3f565b602082019050919050565b60006020820190508181036000830152610aa481610a68565b9050919050565b7f6f776e657220717565727920666f72206e6f6e2d6578697374656e7420746f6b60008201527f656e000000000000000000000000000000000000000000000000000000000000602082015250565b6000610b07602283610993565b9150610b1282610aab565b604082019050919050565b60006020820190508181036000830152610b3681610afa565b9050919050565b7f4572726f72202d20455243373231205472616e7366657220746f20746865207a60008201527f65726f2061646472657373000000000000000000000000000000000000000000602082015250565b6000610b99602b83610993565b9150610ba482610b3d565b604082019050919050565b60006020820190508181036000830152610bc881610b8c565b9050919050565b7f547279696e6720746f207472616e73666572206120746f6b656e20746865206160008201527f64647265737320646f6573206e6f74206f776e21000000000000000000000000602082015250565b6000610c2b603483610993565b9150610c3682610bcf565b604082019050919050565b60006020820190508181036000830152610c5a81610c1e565b9050919050565b7f4e487b7100000000000000000000000000000000000000000000000000000000600052601160045260246000fd5b6000610c9b826107be565b9150610ca6836107be565b9250828203905081811115610cbe57610cbd610c61565b5b92915050565b6000610ccf826107be565b9150610cda836107be565b9250828201905080821115610cf257610cf1610c61565b5b9291505056fea26469706673582212208067aa774c803a9890a58c3d3af96ae69445532632217ad665fb5946389394c864736f6c63430008130033",
  "immutableReferences": {},
  "source": "        // SPDX-License-Identifier: MIT\r\n        pragma solidity ^0.8.0;\r\n\r\nimport './ERC721.sol';\r\nimport './interfaces/IERC721Enumerable.sol'; \r\n\r\n\r\n    contract ERC721Enumerable is IERC721Enumerable, ERC721 {\r\n\r\n    uint256[] private _allTokens;\r\n\r\n    //mapping from tokenId to position in _allTokens\r\n    mapping(uint256 => uint256) private _allTokensIndex;\r\n\r\n    //mapping of owner to list of all owner ids\r\n    mapping(address => uint256[]) private _ownedTokens;\r\n\r\n    //mapping from token Id index of owner tokens list\r\n    mapping(uint256 => uint256) private _ownedTokensIndex;\r\n\r\n   \r\n             constructor() {\r\n        _registerInterface(bytes4(keccak256('totalSupply(bytes4)')^\r\n        keccak256('tokenByIndex(bytes4)')^keccak256('tokenOfOwnerByIndex(bytes4)')));\r\n\r\n    }\r\n\r\n\r\n    function _mint(address to, uint256 tokenId) internal override(ERC721) {\r\n        super._mint(to, tokenId);\r\n        _addTokensToAllTokenEnumeration(tokenId);\r\n        _addTokensToOwnerEnumeration(to, tokenId);\r\n    }\r\n\r\n    //ADD TOKENS TO THE OWNER\r\n    function _addTokensToAllTokenEnumeration(uint256 tokenId) private {\r\n        _allTokensIndex[tokenId] = _allTokens.length;\r\n        _allTokens.push(tokenId);\r\n    }\r\n\r\n    //returns tokenIndex\r\n    function tokenByIndex(uint256 index) public view override returns(uint256) {\r\n       require(index < totalSupply(), 'global index is out of bounds!');\r\n        return _allTokens[index];\r\n        \r\n    }\r\n\r\n    //returns tokenOf OwnerByIndex\r\n    function tokenOfOwnerByIndex(address owner, uint index) public view override returns(uint256) {\r\n       require(index < balanceOf(owner), 'owner index is out of bounds!');\r\n        return _ownedTokens[owner][index];\r\n    }\r\n\r\n    function _addTokensToOwnerEnumeration(address to, uint256 tokenId) private {\r\n       _ownedTokensIndex[tokenId] = _ownedTokens[to].length;\r\n       _ownedTokens[to].push(tokenId); \r\n    }\r\n\r\n//return the total supply of all tokens array.\r\n    function totalSupply()public view override returns(uint256) {\r\n        return _allTokens.length;\r\n    }\r\n\r\n\r\n\r\n\r\n\r\n\r\n\r\n\r\n\r\n    }",
  "sourcePath": "C:\\Users\\vedsu\\OneDrive\\Desktop\\BlockchainDevelopment\\NFT MARKETPLACE\\nft-marketplace-starter-kit\\src\\contracts\\ERC721Enumerable.sol",
  "compiler": {
    "name": "solc",
    "version": "0.8.19+commit.7dd6d404.Emscripten.clang"
  },
  "schemaVersion": "3.4.4",
  "updatedAt": "2023-04-20T17:57:55.414Z",
  "devdoc": {
    "kind": "dev",
    "methods": {
      "supportsInterface(bytes4)": {
        "details": "Interface identification is specified in ERC-165. This function  uses less than 30,000 gas.",
        "params": {
          "interfaceID": "The interface identifier, as specified in ERC-165"
        },
        "returns": {
          "_0": "`true` if the contract implements `interfaceID` and  `interfaceID` is not 0xffffffff, `false` otherwise"
        }
      }
    },
    "version": 1
  },
  "userdoc": {
    "kind": "user",
    "methods": {
      "supportsInterface(bytes4)": {
        "notice": "Query if a contract implements an interface"
      }
    },
    "version": 1
  }
}